{
  "contractName": "Payroll",
  "abi": [
    {
      "constant": true,
      "inputs": [],
      "name": "owner",
      "outputs": [
        {
          "name": "",
          "type": "address"
        }
      ],
      "payable": false,
      "stateMutability": "view",
      "type": "function"
    },
    {
      "constant": true,
      "inputs": [
        {
          "name": "",
          "type": "address"
        }
      ],
      "name": "employees",
      "outputs": [
        {
          "name": "id",
          "type": "address"
        },
        {
          "name": "salary",
          "type": "uint256"
        },
        {
          "name": "lastPayday",
          "type": "uint256"
        }
      ],
      "payable": false,
      "stateMutability": "view",
      "type": "function"
    },
    {
      "constant": false,
      "inputs": [
        {
          "name": "newOwner",
          "type": "address"
        }
      ],
      "name": "transferOwnership",
      "outputs": [],
      "payable": false,
      "stateMutability": "nonpayable",
      "type": "function"
    },
    {
      "anonymous": false,
      "inputs": [
        {
          "indexed": true,
          "name": "previousOwner",
          "type": "address"
        },
        {
          "indexed": true,
          "name": "newOwner",
          "type": "address"
        }
      ],
      "name": "OwnershipTransferred",
      "type": "event"
    },
    {
      "constant": false,
      "inputs": [
        {
          "name": "employeeId",
          "type": "address"
        },
        {
          "name": "salaryByEther",
          "type": "uint256"
        }
      ],
      "name": "addEmployee",
      "outputs": [],
      "payable": false,
      "stateMutability": "nonpayable",
      "type": "function"
    },
    {
      "constant": false,
      "inputs": [
        {
          "name": "employeeId",
          "type": "address"
        }
      ],
      "name": "removeEmployee",
      "outputs": [],
      "payable": false,
      "stateMutability": "nonpayable",
      "type": "function"
    },
    {
      "constant": false,
      "inputs": [
        {
          "name": "employeeId",
          "type": "address"
        },
        {
          "name": "salaryByEther",
          "type": "uint256"
        }
      ],
      "name": "updateEmployee",
      "outputs": [],
      "payable": false,
      "stateMutability": "nonpayable",
      "type": "function"
    },
    {
      "constant": false,
      "inputs": [
        {
          "name": "originalId",
          "type": "address"
        },
        {
          "name": "newId",
          "type": "address"
        }
      ],
      "name": "changePaymentAddress",
      "outputs": [],
      "payable": false,
      "stateMutability": "nonpayable",
      "type": "function"
    },
    {
      "constant": false,
      "inputs": [],
      "name": "addFund",
      "outputs": [
        {
          "name": "",
          "type": "uint256"
        }
      ],
      "payable": true,
      "stateMutability": "payable",
      "type": "function"
    },
    {
      "constant": true,
      "inputs": [],
      "name": "calculateRunway",
      "outputs": [
        {
          "name": "",
          "type": "uint256"
        }
      ],
      "payable": false,
      "stateMutability": "view",
      "type": "function"
    },
    {
      "constant": true,
      "inputs": [],
      "name": "hasEnoughFund",
      "outputs": [
        {
          "name": "",
          "type": "bool"
        }
      ],
      "payable": false,
      "stateMutability": "view",
      "type": "function"
    },
    {
      "constant": false,
      "inputs": [],
      "name": "getPaid",
      "outputs": [],
      "payable": false,
      "stateMutability": "nonpayable",
      "type": "function"
    }
  ],
  "bytecode": "0x60606040526000600255336000806101000a81548173ffffffffffffffffffffffffffffffffffffffff021916908373ffffffffffffffffffffffffffffffffffffffff1602179055506114ff806100586000396000f3006060604052600436106100af576000357c0100000000000000000000000000000000000000000000000000000000900463ffffffff16806323fed09e146100b45780634ec19512146100e15780635e91d8ec1461010a5780638da5cb5b1461014c578063a2f09dfa146101a1578063bc456c42146101bf578063cf41d6f814610217578063d06789471461022c578063d108177a146102b3578063e7fd9a13146102ec578063f2fde38b1461032e575b600080fd5b34156100bf57600080fd5b6100c7610367565b604051808215151515815260200191505060405180910390f35b34156100ec57600080fd5b6100f4610378565b6040518082815260200191505060405180910390f35b341561011557600080fd5b61014a600480803573ffffffffffffffffffffffffffffffffffffffff169060200190919080359060200190919050506103bc565b005b341561015757600080fd5b61015f6106bc565b604051808273ffffffffffffffffffffffffffffffffffffffff1673ffffffffffffffffffffffffffffffffffffffff16815260200191505060405180910390f35b6101a96106e1565b6040518082815260200191505060405180910390f35b34156101ca57600080fd5b610215600480803573ffffffffffffffffffffffffffffffffffffffff1690602001909190803573ffffffffffffffffffffffffffffffffffffffff16906020019091905050610700565b005b341561022257600080fd5b61022a610a5d565b005b341561023757600080fd5b610263600480803573ffffffffffffffffffffffffffffffffffffffff16906020019091905050610ce5565b604051808473ffffffffffffffffffffffffffffffffffffffff1673ffffffffffffffffffffffffffffffffffffffff168152602001838152602001828152602001935050505060405180910390f35b34156102be57600080fd5b6102ea600480803573ffffffffffffffffffffffffffffffffffffffff16906020019091905050610d2f565b005b34156102f757600080fd5b61032c600480803573ffffffffffffffffffffffffffffffffffffffff16906020019091908035906020019091905050610fd7565b005b341561033957600080fd5b610365600480803573ffffffffffffffffffffffffffffffffffffffff1690602001909190505061122d565b005b600080610372610378565b11905090565b6000806002541415151561038b57600080fd5b6103b76002543073ffffffffffffffffffffffffffffffffffffffff163161138290919063ffffffff16565b905090565b6103c461149b565b6000809054906101000a900473ffffffffffffffffffffffffffffffffffffffff1673ffffffffffffffffffffffffffffffffffffffff163373ffffffffffffffffffffffffffffffffffffffff1614151561041f57600080fd5b8261042861149b565b600360008373ffffffffffffffffffffffffffffffffffffffff1673ffffffffffffffffffffffffffffffffffffffff168152602001908152602001600020606060405190810160405290816000820160009054906101000a900473ffffffffffffffffffffffffffffffffffffffff1673ffffffffffffffffffffffffffffffffffffffff1673ffffffffffffffffffffffffffffffffffffffff1681526020016001820154815260200160028201548152505090506000816000015173ffffffffffffffffffffffffffffffffffffffff161415151561050657fe5b83610522670de0b6b3a76400008261139d90919063ffffffff16565b600181905550600360008773ffffffffffffffffffffffffffffffffffffffff1673ffffffffffffffffffffffffffffffffffffffff168152602001908152602001600020606060405190810160405290816000820160009054906101000a900473ffffffffffffffffffffffffffffffffffffffff1673ffffffffffffffffffffffffffffffffffffffff1673ffffffffffffffffffffffffffffffffffffffff1681526020016001820154815260200160028201548152505093506105e8846113d8565b610601846020015160025461146490919063ffffffff16565b600281905550600154600360008873ffffffffffffffffffffffffffffffffffffffff1673ffffffffffffffffffffffffffffffffffffffff1681526020019081526020016000206001018190555042600360008873ffffffffffffffffffffffffffffffffffffffff1673ffffffffffffffffffffffffffffffffffffffff168152602001908152602001600020600201819055506106ae60015460025461147d90919063ffffffff16565b600281905550505050505050565b6000809054906101000a900473ffffffffffffffffffffffffffffffffffffffff1681565b60003073ffffffffffffffffffffffffffffffffffffffff1631905090565b61070861149b565b6000809054906101000a900473ffffffffffffffffffffffffffffffffffffffff1673ffffffffffffffffffffffffffffffffffffffff163373ffffffffffffffffffffffffffffffffffffffff1614151561076357600080fd5b8261076c61149b565b600360008373ffffffffffffffffffffffffffffffffffffffff1673ffffffffffffffffffffffffffffffffffffffff168152602001908152602001600020606060405190810160405290816000820160009054906101000a900473ffffffffffffffffffffffffffffffffffffffff1673ffffffffffffffffffffffffffffffffffffffff1673ffffffffffffffffffffffffffffffffffffffff1681526020016001820154815260200160028201548152505090506000816000015173ffffffffffffffffffffffffffffffffffffffff161415151561084a57fe5b600360008673ffffffffffffffffffffffffffffffffffffffff1673ffffffffffffffffffffffffffffffffffffffff168152602001908152602001600020606060405190810160405290816000820160009054906101000a900473ffffffffffffffffffffffffffffffffffffffff1673ffffffffffffffffffffffffffffffffffffffff1673ffffffffffffffffffffffffffffffffffffffff16815260200160018201548152602001600282015481525050925061090a836113d8565b6060604051908101604052808573ffffffffffffffffffffffffffffffffffffffff1681526020018460200151815260200142815250600360008673ffffffffffffffffffffffffffffffffffffffff1673ffffffffffffffffffffffffffffffffffffffff16815260200190815260200160002060008201518160000160006101000a81548173ffffffffffffffffffffffffffffffffffffffff021916908373ffffffffffffffffffffffffffffffffffffffff1602179055506020820151816001015560408201518160020155905050600360008673ffffffffffffffffffffffffffffffffffffffff1673ffffffffffffffffffffffffffffffffffffffff168152602001908152602001600020600080820160006101000a81549073ffffffffffffffffffffffffffffffffffffffff02191690556001820160009055600282016000905550505050505050565b610a6561149b565b600033610a7061149b565b600360008373ffffffffffffffffffffffffffffffffffffffff1673ffffffffffffffffffffffffffffffffffffffff168152602001908152602001600020606060405190810160405290816000820160009054906101000a900473ffffffffffffffffffffffffffffffffffffffff1673ffffffffffffffffffffffffffffffffffffffff1673ffffffffffffffffffffffffffffffffffffffff1681526020016001820154815260200160028201548152505090506000816000015173ffffffffffffffffffffffffffffffffffffffff1614151515610b4e57fe5b600360003373ffffffffffffffffffffffffffffffffffffffff1673ffffffffffffffffffffffffffffffffffffffff168152602001908152602001600020606060405190810160405290816000820160009054906101000a900473ffffffffffffffffffffffffffffffffffffffff1673ffffffffffffffffffffffffffffffffffffffff1673ffffffffffffffffffffffffffffffffffffffff168152602001600182015481526020016002820154815250509350610c1d600a856040015161147d90919063ffffffff16565b92504283101515610c2a57fe5b83602001513073ffffffffffffffffffffffffffffffffffffffff1631111515610c5057fe5b82600360003373ffffffffffffffffffffffffffffffffffffffff1673ffffffffffffffffffffffffffffffffffffffff16815260200190815260200160002060020181905550836000015173ffffffffffffffffffffffffffffffffffffffff166108fc85602001519081150290604051600060405180830381858888f193505050501515610cdf57600080fd5b50505050565b60036020528060005260406000206000915090508060000160009054906101000a900473ffffffffffffffffffffffffffffffffffffffff16908060010154908060020154905083565b610d3761149b565b6000809054906101000a900473ffffffffffffffffffffffffffffffffffffffff1673ffffffffffffffffffffffffffffffffffffffff163373ffffffffffffffffffffffffffffffffffffffff16141515610d9257600080fd5b81610d9b61149b565b600360008373ffffffffffffffffffffffffffffffffffffffff1673ffffffffffffffffffffffffffffffffffffffff168152602001908152602001600020606060405190810160405290816000820160009054906101000a900473ffffffffffffffffffffffffffffffffffffffff1673ffffffffffffffffffffffffffffffffffffffff1673ffffffffffffffffffffffffffffffffffffffff1681526020016001820154815260200160028201548152505090506000816000015173ffffffffffffffffffffffffffffffffffffffff1614151515610e7957fe5b600360008573ffffffffffffffffffffffffffffffffffffffff1673ffffffffffffffffffffffffffffffffffffffff168152602001908152602001600020606060405190810160405290816000820160009054906101000a900473ffffffffffffffffffffffffffffffffffffffff1673ffffffffffffffffffffffffffffffffffffffff1673ffffffffffffffffffffffffffffffffffffffff168152602001600182015481526020016002820154815250509250610f39836113d8565b610f52836020015160025461146490919063ffffffff16565b600281905550600360008573ffffffffffffffffffffffffffffffffffffffff1673ffffffffffffffffffffffffffffffffffffffff168152602001908152602001600020600080820160006101000a81549073ffffffffffffffffffffffffffffffffffffffff021916905560018201600090556002820160009055505050505050565b610fdf61149b565b6000809054906101000a900473ffffffffffffffffffffffffffffffffffffffff1673ffffffffffffffffffffffffffffffffffffffff163373ffffffffffffffffffffffffffffffffffffffff1614151561103a57600080fd5b81611056670de0b6b3a76400008261139d90919063ffffffff16565b600181905550600360008573ffffffffffffffffffffffffffffffffffffffff1673ffffffffffffffffffffffffffffffffffffffff168152602001908152602001600020606060405190810160405290816000820160009054906101000a900473ffffffffffffffffffffffffffffffffffffffff1673ffffffffffffffffffffffffffffffffffffffff1673ffffffffffffffffffffffffffffffffffffffff1681526020016001820154815260200160028201548152505091506000826000015173ffffffffffffffffffffffffffffffffffffffff1614151561113957fe5b6060604051908101604052808573ffffffffffffffffffffffffffffffffffffffff168152602001600154815260200142815250600360008673ffffffffffffffffffffffffffffffffffffffff1673ffffffffffffffffffffffffffffffffffffffff16815260200190815260200160002060008201518160000160006101000a81548173ffffffffffffffffffffffffffffffffffffffff021916908373ffffffffffffffffffffffffffffffffffffffff160217905550602082015181600101556040820151816002015590505061122160015460025461147d90919063ffffffff16565b60028190555050505050565b6000809054906101000a900473ffffffffffffffffffffffffffffffffffffffff1673ffffffffffffffffffffffffffffffffffffffff163373ffffffffffffffffffffffffffffffffffffffff1614151561128857600080fd5b600073ffffffffffffffffffffffffffffffffffffffff168173ffffffffffffffffffffffffffffffffffffffff16141515156112c457600080fd5b8073ffffffffffffffffffffffffffffffffffffffff166000809054906101000a900473ffffffffffffffffffffffffffffffffffffffff1673ffffffffffffffffffffffffffffffffffffffff167f8be0079c531659141344cd1fd0a4f28419497f9722a3daafe3b4186f6b6457e060405160405180910390a3806000806101000a81548173ffffffffffffffffffffffffffffffffffffffff021916908373ffffffffffffffffffffffffffffffffffffffff16021790555050565b600080828481151561139057fe5b0490508091505092915050565b60008060008414156113b257600091506113d1565b82840290508284828115156113c357fe5b041415156113cd57fe5b8091505b5092915050565b600061141a600a61140c6113f985604001514261146490919063ffffffff16565b856020015161139d90919063ffffffff16565b61138290919063ffffffff16565b9050816000015173ffffffffffffffffffffffffffffffffffffffff166108fc829081150290604051600060405180830381858888f19350505050151561146057600080fd5b5050565b600082821115151561147257fe5b818303905092915050565b600080828401905083811015151561149157fe5b8091505092915050565b606060405190810160405280600073ffffffffffffffffffffffffffffffffffffffff168152602001600081526020016000815250905600a165627a7a723058209574238b0bce13f4e3bb9055ad7ed5f52ca2d5d698591a2ebdc65af8cf107d910029",
  "source": "pragma solidity ^0.4.14;\n\nimport \"./SafeMath.sol\";\nimport \"./Ownable.sol\";\n\ncontract Payroll is Ownable{\n    //使uint类型获得Safemath中的4种运算方法\n    using SafeMath for uint;\n    //创建员工的类\n    struct Employee {\n        address id;\n        uint salary;\n        uint lastPayday;\n    }\n    //以wei表示的工资数\n    uint salary;\n\n    uint constant payDuration = 10 seconds;\n    \n    //calculateRunway的storage变量\n    uint totalSalary = 0;\n\n    //创建员工类的mapping名为employees：key=地址,value=Employee结构体\n    mapping(address => Employee) public employees;\n    \n    //创建检测存在用户的modifier\n    modifier employee_exist(address employeeId) {\n        //用地址参数检索mapping中已存在档案，返回实例到memory\n        Employee memory employee = employees[employeeId];\n        //若不存在的就revert\n        assert(employee.id != 0x0);\n        _;\n    }\n\n    //创建将ether单位的输入转为wei值的modifier\n    modifier ether_to_wei(uint salaryByEther) {\n        salary = salaryByEther.mul(1 ether);\n        _;\n    }\n\n    //支付未结算的部分工资\n    function _partialPaid(Employee employee) private {\n        uint payment = ((employee.salary).mul(now.sub(employee.lastPayday))).div(payDuration);\n        employee.id.transfer(payment);\n    }\n\n    //增加一个员工类的实例到mapping中，用2个modifier检测权限和是否已存在\n    function addEmployee(address employeeId, uint salaryByEther) public onlyOwner \n        ether_to_wei(salaryByEther) {\n        Employee memory employee = employees[employeeId];\n        //若已存在的就revert\n        assert(employee.id == 0x0);\n        //新档案实例添加到mapping\n        employees[employeeId] = Employee(employeeId, salary, now);\n        //calculateRunway的需求\n        totalSalary = totalSalary.add(salary);\n    }\n\n    //从数组中删除一个员工档案\n    function removeEmployee(address employeeId) public onlyOwner \n        employee_exist(employeeId) {\n        Employee memory employee = employees[employeeId];\n        _partialPaid(employee);\n        //calculateRunway的需求\n        totalSalary = totalSalary.sub(employee.salary);\n        //删除员工档案        \n        delete employees[employeeId];\n    }\n    \n    //更新员工档案信息\n    function updateEmployee(address employeeId, uint salaryByEther) public onlyOwner\n        employee_exist(employeeId) ether_to_wei(salaryByEther) {\n        Employee memory employee = employees[employeeId];\n        //在调整工资前结算前期剩余工资\n        _partialPaid(employee);\n        //calculateRunway的需求\n        totalSalary = totalSalary.sub(employee.salary);\n        //更新员工数组内对应档案数据\n        employees[employeeId].salary = salary;\n        employees[employeeId].lastPayday = now;\n        totalSalary = totalSalary.add(salary);\n    }\n\n    //更改员工地址\n    function changePaymentAddress(address originalId, address newId) public onlyOwner\n        employee_exist(originalId) {\n        Employee memory employee = employees[originalId];\n        //在更新地址前结算前期剩余工资\n        _partialPaid(employee);\n        employees[newId] = Employee(newId, employee.salary, now);\n        //清除原有记录\n        delete employees[originalId];\n    }\n\n    function addFund() payable public returns (uint) {\n        return this.balance;\n    }\n    \n    function calculateRunway() public constant returns (uint) {\n        require(totalSalary != 0);\n        return (this.balance).div(totalSalary);\n    }\n    \n    function hasEnoughFund() public constant returns (bool) {\n        return calculateRunway() > 0;\n    }\n    \n    function getPaid() public \n        employee_exist(msg.sender) {\n        Employee memory employee = employees[msg.sender];\n\n        //确认是否到领薪日\n        uint nextPayday = employee.lastPayday.add(payDuration);\n        assert(nextPayday < now);\n        //判断合约内余额是否够支付本次领薪水\n        assert(this.balance > employee.salary);\n        //领取薪水，更新领薪日期\n        employees[msg.sender].lastPayday = nextPayday;\n        employee.id.transfer(employee.salary);\n    }\n    \n}\n",
  "sourcePath": "/home/node/code/payroll/contracts/Payroll.sol",
  "compiler": {
    "name": "solc",
    "version": "0.4.19+commit.c4cbbb05.Emscripten.clang"
  },
  "schemaVersion": "2.0.0",
  "updatedAt": "2018-03-24T13:33:39.532Z"
}