{
  "contractName": "Payroll",
  "abi": [
    {
      "constant": true,
      "inputs": [],
      "name": "owner",
      "outputs": [
        {
          "name": "",
          "type": "address"
        }
      ],
      "payable": false,
      "stateMutability": "view",
      "type": "function"
    },
    {
      "constant": true,
      "inputs": [
        {
          "name": "",
          "type": "address"
        }
      ],
      "name": "employees",
      "outputs": [
        {
          "name": "id",
          "type": "address"
        },
        {
          "name": "salary",
          "type": "uint256"
        },
        {
          "name": "lastPayday",
          "type": "uint256"
        }
      ],
      "payable": false,
      "stateMutability": "view",
      "type": "function"
    },
    {
      "constant": false,
      "inputs": [
        {
          "name": "newOwner",
          "type": "address"
        }
      ],
      "name": "transferOwnership",
      "outputs": [],
      "payable": false,
      "stateMutability": "nonpayable",
      "type": "function"
    },
    {
      "anonymous": false,
      "inputs": [
        {
          "indexed": false,
          "name": "employee",
          "type": "address"
        }
      ],
      "name": "NewEmployee",
      "type": "event"
    },
    {
      "anonymous": false,
      "inputs": [
        {
          "indexed": false,
          "name": "employee",
          "type": "address"
        }
      ],
      "name": "UpdateEmployee",
      "type": "event"
    },
    {
      "anonymous": false,
      "inputs": [
        {
          "indexed": false,
          "name": "employee",
          "type": "address"
        }
      ],
      "name": "RemoveEmployee",
      "type": "event"
    },
    {
      "anonymous": false,
      "inputs": [
        {
          "indexed": false,
          "name": "balance",
          "type": "uint256"
        }
      ],
      "name": "NewFund",
      "type": "event"
    },
    {
      "anonymous": false,
      "inputs": [
        {
          "indexed": false,
          "name": "employee",
          "type": "address"
        }
      ],
      "name": "GetPaid",
      "type": "event"
    },
    {
      "anonymous": false,
      "inputs": [
        {
          "indexed": true,
          "name": "previousOwner",
          "type": "address"
        },
        {
          "indexed": true,
          "name": "newOwner",
          "type": "address"
        }
      ],
      "name": "OwnershipTransferred",
      "type": "event"
    },
    {
      "constant": false,
      "inputs": [
        {
          "name": "index",
          "type": "uint256"
        }
      ],
      "name": "checkEmployee",
      "outputs": [
        {
          "name": "employeeId",
          "type": "address"
        },
        {
          "name": "salary",
          "type": "uint256"
        },
        {
          "name": "lastPayday",
          "type": "uint256"
        }
      ],
      "payable": false,
      "stateMutability": "nonpayable",
      "type": "function"
    },
    {
      "constant": false,
      "inputs": [
        {
          "name": "employeeId",
          "type": "address"
        },
        {
          "name": "salaryByEther",
          "type": "uint256"
        }
      ],
      "name": "addEmployee",
      "outputs": [],
      "payable": false,
      "stateMutability": "nonpayable",
      "type": "function"
    },
    {
      "constant": false,
      "inputs": [
        {
          "name": "employeeId",
          "type": "address"
        }
      ],
      "name": "removeEmployee",
      "outputs": [],
      "payable": false,
      "stateMutability": "nonpayable",
      "type": "function"
    },
    {
      "constant": false,
      "inputs": [
        {
          "name": "employeeId",
          "type": "address"
        },
        {
          "name": "salaryByEther",
          "type": "uint256"
        }
      ],
      "name": "updateEmployee",
      "outputs": [],
      "payable": false,
      "stateMutability": "nonpayable",
      "type": "function"
    },
    {
      "constant": false,
      "inputs": [
        {
          "name": "originalId",
          "type": "address"
        },
        {
          "name": "newId",
          "type": "address"
        }
      ],
      "name": "changePaymentAddress",
      "outputs": [],
      "payable": false,
      "stateMutability": "nonpayable",
      "type": "function"
    },
    {
      "constant": false,
      "inputs": [],
      "name": "addFund",
      "outputs": [
        {
          "name": "",
          "type": "uint256"
        }
      ],
      "payable": true,
      "stateMutability": "payable",
      "type": "function"
    },
    {
      "constant": true,
      "inputs": [],
      "name": "calculateRunway",
      "outputs": [
        {
          "name": "",
          "type": "uint256"
        }
      ],
      "payable": false,
      "stateMutability": "view",
      "type": "function"
    },
    {
      "constant": true,
      "inputs": [],
      "name": "hasEnoughFund",
      "outputs": [
        {
          "name": "",
          "type": "bool"
        }
      ],
      "payable": false,
      "stateMutability": "view",
      "type": "function"
    },
    {
      "constant": false,
      "inputs": [],
      "name": "getPaid",
      "outputs": [],
      "payable": false,
      "stateMutability": "nonpayable",
      "type": "function"
    },
    {
      "constant": true,
      "inputs": [],
      "name": "checkInfo",
      "outputs": [
        {
          "name": "balance",
          "type": "uint256"
        },
        {
          "name": "runway",
          "type": "uint256"
        },
        {
          "name": "employeeCount",
          "type": "uint256"
        }
      ],
      "payable": false,
      "stateMutability": "view",
      "type": "function"
    }
  ],
  "bytecode": "0x606060405260006002556000600355336000806101000a81548173ffffffffffffffffffffffffffffffffffffffff021916908373ffffffffffffffffffffffffffffffffffffffff160217905550611b2a8061005d6000396000f3006060604052600436106100c5576000357c0100000000000000000000000000000000000000000000000000000000900463ffffffff16806323fed09e146100ca5780634ec19512146100f75780635e91d8ec1461012057806385a96258146101625780638da5cb5b1461019957806396b02696146101ee578063a2f09dfa1461025f578063bc456c421461027d578063cf41d6f8146102d5578063d0678947146102ea578063d108177a14610371578063e7fd9a13146103aa578063f2fde38b146103ec575b600080fd5b34156100d557600080fd5b6100dd610425565b604051808215151515815260200191505060405180910390f35b341561010257600080fd5b61010a610436565b6040518082815260200191505060405180910390f35b341561012b57600080fd5b610160600480803573ffffffffffffffffffffffffffffffffffffffff1690602001909190803590602001909190505061047a565b005b341561016d57600080fd5b6101756107dd565b60405180848152602001838152602001828152602001935050505060405180910390f35b34156101a457600080fd5b6101ac61081c565b604051808273ffffffffffffffffffffffffffffffffffffffff1673ffffffffffffffffffffffffffffffffffffffff16815260200191505060405180910390f35b34156101f957600080fd5b61020f6004808035906020019091905050610841565b604051808473ffffffffffffffffffffffffffffffffffffffff1673ffffffffffffffffffffffffffffffffffffffff168152602001838152602001828152602001935050505060405180910390f35b6102676108db565b6040518082815260200191505060405180910390f35b341561028857600080fd5b6102d3600480803573ffffffffffffffffffffffffffffffffffffffff1690602001909190803573ffffffffffffffffffffffffffffffffffffffff16906020019091905050610948565b005b34156102e057600080fd5b6102e8610ca5565b005b34156102f557600080fd5b610321600480803573ffffffffffffffffffffffffffffffffffffffff16906020019091905050610f94565b604051808473ffffffffffffffffffffffffffffffffffffffff1673ffffffffffffffffffffffffffffffffffffffff168152602001838152602001828152602001935050505060405180910390f35b341561037c57600080fd5b6103a8600480803573ffffffffffffffffffffffffffffffffffffffff16906020019091905050610fde565b005b34156103b557600080fd5b6103ea600480803573ffffffffffffffffffffffffffffffffffffffff16906020019091908035906020019091905050611404565b005b34156103f757600080fd5b610423600480803573ffffffffffffffffffffffffffffffffffffffff1690602001909190505061173c565b005b600080610430610436565b11905090565b6000806002541415151561044957600080fd5b6104756002543073ffffffffffffffffffffffffffffffffffffffff163161189190919063ffffffff16565b905090565b610482611a49565b6000809054906101000a900473ffffffffffffffffffffffffffffffffffffffff1673ffffffffffffffffffffffffffffffffffffffff163373ffffffffffffffffffffffffffffffffffffffff161415156104dd57600080fd5b826104e6611a49565b600560008373ffffffffffffffffffffffffffffffffffffffff1673ffffffffffffffffffffffffffffffffffffffff168152602001908152602001600020606060405190810160405290816000820160009054906101000a900473ffffffffffffffffffffffffffffffffffffffff1673ffffffffffffffffffffffffffffffffffffffff1673ffffffffffffffffffffffffffffffffffffffff1681526020016001820154815260200160028201548152505090506000816000015173ffffffffffffffffffffffffffffffffffffffff16141515156105c457fe5b836105e0670de0b6b3a7640000826118ac90919063ffffffff16565b600181905550600560008773ffffffffffffffffffffffffffffffffffffffff1673ffffffffffffffffffffffffffffffffffffffff168152602001908152602001600020606060405190810160405290816000820160009054906101000a900473ffffffffffffffffffffffffffffffffffffffff1673ffffffffffffffffffffffffffffffffffffffff1673ffffffffffffffffffffffffffffffffffffffff1681526020016001820154815260200160028201548152505093506106a6846118e7565b6106bf846020015160025461197390919063ffffffff16565b600281905550600154600560008873ffffffffffffffffffffffffffffffffffffffff1673ffffffffffffffffffffffffffffffffffffffff1681526020019081526020016000206001018190555042600560008873ffffffffffffffffffffffffffffffffffffffff1673ffffffffffffffffffffffffffffffffffffffff1681526020019081526020016000206002018190555061076c60015460025461198c90919063ffffffff16565b6002819055507f488bacda22fcd72c26e796890d62491cef03e8de61cad515b1826a683f2e760f86604051808273ffffffffffffffffffffffffffffffffffffffff1673ffffffffffffffffffffffffffffffffffffffff16815260200191505060405180910390a1505050505050565b60008060003073ffffffffffffffffffffffffffffffffffffffff1631925060035490506000600254111561081757610814610436565b91505b909192565b6000809054906101000a900473ffffffffffffffffffffffffffffffffffffffff1681565b60008060008060048581548110151561085657fe5b906000526020600020900160009054906101000a900473ffffffffffffffffffffffffffffffffffffffff169350600560008573ffffffffffffffffffffffffffffffffffffffff1673ffffffffffffffffffffffffffffffffffffffff16815260200190815260200160002090508060010154925080600201549150509193909250565b60007fbe1e4b1ad5d83f75925e2f00ab046fbab2ee90d0dbdf7f2049d037a48ada09f33073ffffffffffffffffffffffffffffffffffffffff16316040518082815260200191505060405180910390a13073ffffffffffffffffffffffffffffffffffffffff1631905090565b610950611a49565b6000809054906101000a900473ffffffffffffffffffffffffffffffffffffffff1673ffffffffffffffffffffffffffffffffffffffff163373ffffffffffffffffffffffffffffffffffffffff161415156109ab57600080fd5b826109b4611a49565b600560008373ffffffffffffffffffffffffffffffffffffffff1673ffffffffffffffffffffffffffffffffffffffff168152602001908152602001600020606060405190810160405290816000820160009054906101000a900473ffffffffffffffffffffffffffffffffffffffff1673ffffffffffffffffffffffffffffffffffffffff1673ffffffffffffffffffffffffffffffffffffffff1681526020016001820154815260200160028201548152505090506000816000015173ffffffffffffffffffffffffffffffffffffffff1614151515610a9257fe5b600560008673ffffffffffffffffffffffffffffffffffffffff1673ffffffffffffffffffffffffffffffffffffffff168152602001908152602001600020606060405190810160405290816000820160009054906101000a900473ffffffffffffffffffffffffffffffffffffffff1673ffffffffffffffffffffffffffffffffffffffff1673ffffffffffffffffffffffffffffffffffffffff168152602001600182015481526020016002820154815250509250610b52836118e7565b6060604051908101604052808573ffffffffffffffffffffffffffffffffffffffff1681526020018460200151815260200142815250600560008673ffffffffffffffffffffffffffffffffffffffff1673ffffffffffffffffffffffffffffffffffffffff16815260200190815260200160002060008201518160000160006101000a81548173ffffffffffffffffffffffffffffffffffffffff021916908373ffffffffffffffffffffffffffffffffffffffff1602179055506020820151816001015560408201518160020155905050600560008673ffffffffffffffffffffffffffffffffffffffff1673ffffffffffffffffffffffffffffffffffffffff168152602001908152602001600020600080820160006101000a81549073ffffffffffffffffffffffffffffffffffffffff02191690556001820160009055600282016000905550505050505050565b610cad611a49565b600033610cb8611a49565b600560008373ffffffffffffffffffffffffffffffffffffffff1673ffffffffffffffffffffffffffffffffffffffff168152602001908152602001600020606060405190810160405290816000820160009054906101000a900473ffffffffffffffffffffffffffffffffffffffff1673ffffffffffffffffffffffffffffffffffffffff1673ffffffffffffffffffffffffffffffffffffffff1681526020016001820154815260200160028201548152505090506000816000015173ffffffffffffffffffffffffffffffffffffffff1614151515610d9657fe5b600560003373ffffffffffffffffffffffffffffffffffffffff1673ffffffffffffffffffffffffffffffffffffffff168152602001908152602001600020606060405190810160405290816000820160009054906101000a900473ffffffffffffffffffffffffffffffffffffffff1673ffffffffffffffffffffffffffffffffffffffff1673ffffffffffffffffffffffffffffffffffffffff168152602001600182015481526020016002820154815250509350610e65600a856040015161198c90919063ffffffff16565b92504283101515610e7257fe5b83602001513073ffffffffffffffffffffffffffffffffffffffff1631111515610e9857fe5b82600560003373ffffffffffffffffffffffffffffffffffffffff1673ffffffffffffffffffffffffffffffffffffffff16815260200190815260200160002060020181905550836000015173ffffffffffffffffffffffffffffffffffffffff166108fc85602001519081150290604051600060405180830381858888f193505050501515610f2757600080fd5b7f7decdec0fa70b21ecd45a15b04d5f5313c8fc915a1b3c034aa2bffa4fc8fc5918460000151604051808273ffffffffffffffffffffffffffffffffffffffff1673ffffffffffffffffffffffffffffffffffffffff16815260200191505060405180910390a150505050565b60056020528060005260406000206000915090508060000160009054906101000a900473ffffffffffffffffffffffffffffffffffffffff16908060010154908060020154905083565b610fe6611a49565b60008060009054906101000a900473ffffffffffffffffffffffffffffffffffffffff1673ffffffffffffffffffffffffffffffffffffffff163373ffffffffffffffffffffffffffffffffffffffff1614151561104357600080fd5b8261104c611a49565b600560008373ffffffffffffffffffffffffffffffffffffffff1673ffffffffffffffffffffffffffffffffffffffff168152602001908152602001600020606060405190810160405290816000820160009054906101000a900473ffffffffffffffffffffffffffffffffffffffff1673ffffffffffffffffffffffffffffffffffffffff1673ffffffffffffffffffffffffffffffffffffffff1681526020016001820154815260200160028201548152505090506000816000015173ffffffffffffffffffffffffffffffffffffffff161415151561112a57fe5b600560008673ffffffffffffffffffffffffffffffffffffffff1673ffffffffffffffffffffffffffffffffffffffff168152602001908152602001600020606060405190810160405290816000820160009054906101000a900473ffffffffffffffffffffffffffffffffffffffff1673ffffffffffffffffffffffffffffffffffffffff1673ffffffffffffffffffffffffffffffffffffffff1681526020016001820154815260200160028201548152505093506111ea846118e7565b611203846020015160025461197390919063ffffffff16565b60028190555061121f600160035461197390919063ffffffff16565b600381905550600560008673ffffffffffffffffffffffffffffffffffffffff1673ffffffffffffffffffffffffffffffffffffffff168152602001908152602001600020600080820160006101000a81549073ffffffffffffffffffffffffffffffffffffffff02191690556001820160009055600282016000905550506112a7856119aa565b92506004838154811015156112b857fe5b906000526020600020900160006101000a81549073ffffffffffffffffffffffffffffffffffffffff021916905560046001600480549050038154811015156112fd57fe5b906000526020600020900160009054906101000a900473ffffffffffffffffffffffffffffffffffffffff1660048481548110151561133857fe5b906000526020600020900160006101000a81548173ffffffffffffffffffffffffffffffffffffffff021916908373ffffffffffffffffffffffffffffffffffffffff16021790555060016004818180549050039150816113999190611a81565b507f52d6abdca596d1c4a93f3df131dcf3a55ecaaa92ab3a0be58a15b98aab12d49b85604051808273ffffffffffffffffffffffffffffffffffffffff1673ffffffffffffffffffffffffffffffffffffffff16815260200191505060405180910390a15050505050565b61140c611a49565b6000809054906101000a900473ffffffffffffffffffffffffffffffffffffffff1673ffffffffffffffffffffffffffffffffffffffff163373ffffffffffffffffffffffffffffffffffffffff1614151561146757600080fd5b81611483670de0b6b3a7640000826118ac90919063ffffffff16565b600181905550600560008573ffffffffffffffffffffffffffffffffffffffff1673ffffffffffffffffffffffffffffffffffffffff168152602001908152602001600020606060405190810160405290816000820160009054906101000a900473ffffffffffffffffffffffffffffffffffffffff1673ffffffffffffffffffffffffffffffffffffffff1673ffffffffffffffffffffffffffffffffffffffff1681526020016001820154815260200160028201548152505091506000826000015173ffffffffffffffffffffffffffffffffffffffff1614151561156657fe5b6060604051908101604052808573ffffffffffffffffffffffffffffffffffffffff168152602001600154815260200142815250600560008673ffffffffffffffffffffffffffffffffffffffff1673ffffffffffffffffffffffffffffffffffffffff16815260200190815260200160002060008201518160000160006101000a81548173ffffffffffffffffffffffffffffffffffffffff021916908373ffffffffffffffffffffffffffffffffffffffff160217905550602082015181600101556040820151816002015590505061164e60015460025461198c90919063ffffffff16565b60028190555061166a600160035461198c90919063ffffffff16565b600381905550600480548060010182816116849190611aad565b9160005260206000209001600086909190916101000a81548173ffffffffffffffffffffffffffffffffffffffff021916908373ffffffffffffffffffffffffffffffffffffffff160217905550507f37e9308d0d750d43a2e5ef16b6d47b60b2741e12be41128ca3bec877db4f9dcb84604051808273ffffffffffffffffffffffffffffffffffffffff1673ffffffffffffffffffffffffffffffffffffffff16815260200191505060405180910390a150505050565b6000809054906101000a900473ffffffffffffffffffffffffffffffffffffffff1673ffffffffffffffffffffffffffffffffffffffff163373ffffffffffffffffffffffffffffffffffffffff1614151561179757600080fd5b600073ffffffffffffffffffffffffffffffffffffffff168173ffffffffffffffffffffffffffffffffffffffff16141515156117d357600080fd5b8073ffffffffffffffffffffffffffffffffffffffff166000809054906101000a900473ffffffffffffffffffffffffffffffffffffffff1673ffffffffffffffffffffffffffffffffffffffff167f8be0079c531659141344cd1fd0a4f28419497f9722a3daafe3b4186f6b6457e060405160405180910390a3806000806101000a81548173ffffffffffffffffffffffffffffffffffffffff021916908373ffffffffffffffffffffffffffffffffffffffff16021790555050565b600080828481151561189f57fe5b0490508091505092915050565b60008060008414156118c157600091506118e0565b82840290508284828115156118d257fe5b041415156118dc57fe5b8091505b5092915050565b6000611929600a61191b61190885604001514261197390919063ffffffff16565b85602001516118ac90919063ffffffff16565b61189190919063ffffffff16565b9050816000015173ffffffffffffffffffffffffffffffffffffffff166108fc829081150290604051600060405180830381858888f19350505050151561196f57600080fd5b5050565b600082821115151561198157fe5b818303905092915050565b60008082840190508381101515156119a057fe5b8091505092915050565b600080600090505b600480549050811015611a42578273ffffffffffffffffffffffffffffffffffffffff166004828154811015156119e557fe5b906000526020600020900160009054906101000a900473ffffffffffffffffffffffffffffffffffffffff1673ffffffffffffffffffffffffffffffffffffffff161415611a3557809150611a43565b80806001019150506119b2565b5b50919050565b606060405190810160405280600073ffffffffffffffffffffffffffffffffffffffff16815260200160008152602001600081525090565b815481835581811511611aa857818360005260206000209182019101611aa79190611ad9565b5b505050565b815481835581811511611ad457818360005260206000209182019101611ad39190611ad9565b5b505050565b611afb91905b80821115611af7576000816000905550600101611adf565b5090565b905600a165627a7a72305820bff6a59e87f985fdf66f36b01779793d560f0770687081774872901b736c91ae0029",
  "source": "pragma solidity ^0.4.14;\n\nimport \"./SafeMath.sol\";\nimport \"./Ownable.sol\";\n\ncontract Payroll is Ownable{\n    //使uint类型获得Safemath中的4种运算方法\n    using SafeMath for uint;\n    //创建员工的类\n    struct Employee {\n        address id;\n        uint salary;\n        uint lastPayday;\n    }\n    //以wei表示的工资数\n    uint salary;\n\n    uint constant payDuration = 10 seconds;\n    \n    //calculateRunway的storage变量\n    uint totalSalary = 0;\n    uint totalEmployee = 0;\n\n    address[] EmployeeList;\n\n    //创建员工类的mapping名为employees：key=地址,value=Employee结构体\n    mapping(address => Employee) public employees;\n    \n\n    event NewEmployee(\n        address employee\n    );\n\n    event UpdateEmployee(\n        address employee\n    );\n\n    event RemoveEmployee(\n        address employee\n    );\n\n    event NewFund(\n        uint balance\n    );\n\n    event GetPaid(\n        address employee\n    );\n\n\n    //创建检测存在用户的modifier\n    modifier employee_exist(address employeeId) {\n        //用地址参数检索mapping中已存在档案，返回实例到memory\n        Employee memory employee = employees[employeeId];\n        //若不存在的就revert\n        assert(employee.id != 0x0);\n        _;\n    }\n\n    //创建将ether单位的输入转为wei值的modifier\n    modifier ether_to_wei(uint salaryByEther) {\n        salary = salaryByEther.mul(1 ether);\n        _;\n    }\n\n    //支付未结算的部分工资\n    function _partialPaid(Employee employee) private {\n        uint payment = ((employee.salary).mul(now.sub(employee.lastPayday))).div(payDuration);\n        employee.id.transfer(payment);\n    }\n\n    //检索列表中是否已存在某个员工的记录，返回其索引\n    function _findEmployee(address employeeId) private returns (uint) {\n        for (uint i = 0; i < EmployeeList.length; i++) {\n            if (EmployeeList[i] == employeeId) {\n                return (i);\n            }\n        }\n    }\n\n    function checkEmployee(uint index) public returns (address employeeId, uint salary, uint lastPayday) {\n        employeeId = EmployeeList[index];\n        var employee = employees[employeeId];\n        salary = employee.salary;\n        lastPayday = employee.lastPayday;\n    }\n\n\n    //增加一个员工类的实例到mapping中，用2个modifier检测权限和是否已存在\n    function addEmployee(address employeeId, uint salaryByEther) public onlyOwner \n        ether_to_wei(salaryByEther) {\n        Employee memory employee = employees[employeeId];\n        //若已存在的就revert\n        assert(employee.id == 0x0);\n        //新档案实例添加到mapping\n        employees[employeeId] = Employee(employeeId, salary, now);\n        //calculateRunway的需求\n        totalSalary = totalSalary.add(salary);\n        totalEmployee = totalEmployee.add(1);\n        EmployeeList.push(employeeId);\n\n        NewEmployee(employeeId);\n    }\n\n    //从数组中删除一个员工档案\n    function removeEmployee(address employeeId) public onlyOwner \n        employee_exist(employeeId) {\n        Employee memory employee = employees[employeeId];\n        _partialPaid(employee);\n        //calculateRunway的需求\n        totalSalary = totalSalary.sub(employee.salary);\n        totalEmployee = totalEmployee.sub(1);\n        //删除员工档案        \n        delete employees[employeeId];\n\n        var index = _findEmployee(employeeId);\n        delete EmployeeList[index];\n        EmployeeList[index] = EmployeeList[EmployeeList.length - 1];\n        EmployeeList.length -= 1;\n\n        RemoveEmployee(employeeId);\n\n    }\n    \n    //更新员工档案信息\n    function updateEmployee(address employeeId, uint salaryByEther) public onlyOwner\n        employee_exist(employeeId) ether_to_wei(salaryByEther) {\n        Employee memory employee = employees[employeeId];\n        //在调整工资前结算前期剩余工资\n        _partialPaid(employee);\n        //calculateRunway的需求\n        totalSalary = totalSalary.sub(employee.salary);\n        //更新员工数组内对应档案数据\n        employees[employeeId].salary = salary;\n        employees[employeeId].lastPayday = now;\n        totalSalary = totalSalary.add(salary);\n\n        UpdateEmployee(employeeId);\n    }\n\n    //更改员工地址\n    function changePaymentAddress(address originalId, address newId) public onlyOwner\n        employee_exist(originalId) {\n        Employee memory employee = employees[originalId];\n        //在更新地址前结算前期剩余工资\n        _partialPaid(employee);\n        employees[newId] = Employee(newId, employee.salary, now);\n        //清除原有记录\n        delete employees[originalId];\n    }\n\n    function addFund() payable public returns (uint) {\n        NewFund(this.balance);\n        return this.balance;\n    }\n    \n    function calculateRunway() public constant returns (uint) {\n        require(totalSalary != 0);\n        return (this.balance).div(totalSalary);\n    }\n    \n    function hasEnoughFund() public constant returns (bool) {\n        return calculateRunway() > 0;\n    }\n    \n    function getPaid() public \n        employee_exist(msg.sender) {\n        Employee memory employee = employees[msg.sender];\n\n        //确认是否到领薪日\n        uint nextPayday = employee.lastPayday.add(payDuration);\n        assert(nextPayday < now);\n        //判断合约内余额是否够支付本次领薪水\n        assert(this.balance > employee.salary);\n        //领取薪水，更新领薪日期\n        employees[msg.sender].lastPayday = nextPayday;\n        employee.id.transfer(employee.salary);\n\n        GetPaid(employee.id);\n    }\n    \n\n    function checkInfo() public constant returns (uint balance, uint runway, uint employeeCount) {\n        balance = this.balance;\n        employeeCount = totalEmployee;\n        if (totalSalary > 0) {\n            runway = calculateRunway();\n        }\n    }\n\n}\n",
  "sourcePath": "/home/node/code/payroll/contracts/Payroll.sol",
  "compiler": {
    "name": "solc",
    "version": "0.4.19+commit.c4cbbb05.Emscripten.clang"
  },
  "schemaVersion": "2.0.0",
  "updatedAt": "2018-03-30T22:35:07.566Z"
}